:020000040800F2
:1000000000000120C5020008CB020008CF02000852
:1000100041030008450300088D03000800000000AC
:10002000000000000000000000000000D5030008F0
:10003000D903000800000000DD030008F1070008F4
:10004000F1030008F1030008F1030008F1030008C0
:10005000F1030008F1030008CD0C0008ED0C0008C6
:100060000D0D00082D0D00084D0D0008F1030008CE
:10007000F1030008F1030008F1030008F103000890
:10008000F1030008F1030008F1030008000000007C
:100090000000000000000000000000006D0D0008DE
:1000A000F1030008F1030008F1030008F103000860
:1000B000F1030008F1030008F1030008F103000850
:1000C000F1030008F1030008F1030008F103000840
:1000D000F103000869070008F103000800000000B0
:1000E000F1030008F1030008F1030008000000001C
:1000F000000000000000000000000000F103000804
:1001000000000000F1030008F1030008F1030008FB
:1001100000000000000000000000000000000000DF
:10012000990E0008F1030008F1030008F10300082C
:10013000F1030008000000000000000000000000C3
:10014000000000000000000000000000F1030008B3
:10015000F1030008F1030008F1030008F1030008AF
:10016000F1030008F1030008000000000000000097
:10017000000000000000000000000000000000007F
:1001800000000000F1030008000000000000000073
:10019000F103000800B583B000F0BAF9384B394AD2
:1001A0001360394A1360394900E02146384B9942BF
:1001B0000BD20A684B6801F10C0488689842F4D9A4
:1001C0001168196004330432F8E72E4B1A68314B7A
:1001D0009A4200D0FEE72C4B1A682F4B9A42F9D175
:1001E000274B2E4A13602E4A13602E4B05E0002049
:1001F000106004329342FAD80B462B4A934204D241
:10020000194651F8082B5B68F4E7244B1B6813B9B7
:10021000234B1B6803B1FEE700F08CF9694601A887
:1002200000F022F9214C224BE41AA4100025AC4224
:1002300014DC204C204BE41AA4100025AC4213DC43
:100240000099019800F040FE05461C4C1C4BE41A36
:10025000A410002C0EDC284600F0E2F8144B53F8F2
:10026000253098470135E2E7134B53F8253098477E
:100270000135E3E7013C124B53F824309847E8E797
:10028000BABADECA000000209C000020F403000877
:100290000C0400087856341232547698A0000020DE
:1002A000D00100200C0400081C0400081C040008F5
:1002B0001C0400081C0400081C0400081C0400089E
:1002C0001C04000808B5FFF765FF00BEFEE71EF03E
:1002D000040F0CBFEFF30880EFF309807146414A29
:1002E00010472DE9F04182B004468846124B5E6B00
:1002F0009F6B9D6A1B6B13F0020F03D00E4BDB6AE2
:10030000002B0CDB0D4800F0B7F8CDF800803B4621
:1003100032462946204600F011F900BEFEE74BF6B2
:10032000AB6100F085F90028ECD0034B4FF00042A0
:10033000DA6202B0BDE8F08100ED00E04419000887
:1003400000BEFEE71EF0040F0CBFEFF30880EFF3D2
:1003500009807146244A10472DE9F04182B00446D5
:100360008846084B5E6B9F6B9D6A074800F084F8D7
:10037000CDF800803B4632462946204600F0DEF8A4
:1003800000BEFEE700ED00E0541900081EF0040F67
:100390000CBFEFF30880EFF309807146134A104752
:1003A0002DE9F04182B004468846084B5E6B9F6B96
:1003B0009D6A074800F060F8CDF800803B46324661
:1003C0002946204600F0BAF800BEFEE700ED00E046
:1003D0006019000800BEFEE700BEFEE700BEFEE7B3
:1003E00070470000E302000859030008A103000859
:0403F00000BEFEE766
:1003F400B419000800000020A0000020B41900086F
:100404000000001000000010A0000020D401002013
:080414000000001000000010C0
:10042000FEE7000008B503460C4A12685AB10B4AB1
:100430001068033323F003030344094A934206D8A8
:10044000064A136008BD054A06491160EFE700F04F
:1004500071FD0C2303604FF0FF30F3E7A400002090
:1004600000FC0020D401002001230360014B0B603D
:10047000704700BF040000200FB400B583B004AB88
:1004800053F8042B01938021064800F085FD0028D5
:1004900003DD0146034800F037F803B05DF804EBD4
:1004A00004B07047AC0000202DE9F04385B004464D
:1004B0000F4643560BB10E461EE004252846214642
:1004C000ABBE0446384605B0BDE8F08314F9011B05
:1004D00004AA1A4402F8101C0133AB42F6D304AA52
:1004E0001344002203F8102C4FF00408E94640465C
:1004F0004946ABBE8046761B002EE3D03546102E13
:1005000028BF10250023E8E708B5FFF7CDFF08BD99
:1005100008B500F09DF8054B054A9A60D3F888208D
:1005200042F47002C3F8882008BD00BF00ED00E06F
:100530000000000808B500F0B1F808BDF8B50446A1
:100540000D4617461E462748FFF796FF21682648A6
:10055000FFF792FF61682548FFF78EFFA1682448E6
:10056000FFF78AFFE1682348FFF786FF21692248E9
:10057000FFF782FF61692148FFF77EFFA1692048EC
:10058000FFF77AFFE1691F48FFF776FF1E48FFF784
:1005900073FF29461D48FFF76FFF1D4CE16A1D4898
:1005A000FFF76AFF216B1C48FFF766FFE16B1B48F2
:1005B000FFF762FF15F0800F0AD115F4004F0CD140
:1005C0001748FFF759FF06991648FFF755FFF8BD82
:1005D00039461548FFF750FFEFE731461348FFF75C
:1005E0004BFFEDE7281800083818000848180008E5
:1005F00058180008681800087818000888180008BB
:1006000098180008A8180008B8180008C4180008AE
:1006100000ED00E0D4180008E4180008F418000801
:10062000241900082C1900080419000814190008DE
:1006300083691A888A4201D0002070470268033A11
:10064000012A03D8023383610120704700207047DC
:100650000F49D1F8883043F47003C1F888300D4B4E
:100660001A6842F001021A60002098601A6822F0AD
:10067000847222F480321A60074A5A601A6822F49F
:1006800080221A60D8604FF000638B60704700BF13
:1006900000ED00E00038024010300024224B9B683F
:1006A00003F00C03042B14D0082B16D01BB11F4BE6
:1006B0001F4A1A6002E01D4B1D4A1A601A4B9B68C4
:1006C000C3F303131B4AD15C184A1368CB40136071
:1006D0007047164B164A1A60F0E7134B5A685B686E
:1006E00003F03F0312F4800F13D0114AB2FBF3F270
:1006F0000D4B5B68C3F3881303FB02F30A4A52688D
:10070000C2F3014201325200B3FBF2F3074A136015
:10071000D4E7074AB2FBF3F2034B5B68C3F38813D9
:1007200003FB02F3EAE700BF003802400C000020A0
:100730000024F40070190008024AD36823F08003F3
:10074000D360704700100140024AD36843F0400371
:10075000D360704700100140024AD36823F0400381
:10076000D36070470010014008B5194B1B6813F0A7
:10077000800F17D0164BDB6813F0800F12D0154B8B
:100780001B685BB1144A12689A5C3AB112490A6854
:10079000501C08609A5C0E4B5A6003E0FFF7CCFFD8
:1007A000FFF7D2FF0A4B1B6813F0400F04D0084B31
:1007B000DB6813F0400F00D108BD054A136823F031
:1007C00040031360FFF7C8FF024B00221A60F3E7F3
:1007D000001001402C01002030010020034B1A685A
:1007E00022F001021A6000229A60704710E000E0D7
:1007F00008B5064B1B6803B19847054B1B78012BC6
:1008000000D008BDFFF7EAFFFBE700BF340100207E
:10081000380100200B4B1A6822F480221A601A68F3
:1008200042F480321A60074B1B6813F4003FFAD081
:10083000044B9A6822F002029A609A6842F0010220
:100840009A60704700380240032822D8DFE800F0A1
:10085000020A121A0F48036B012202FA01F119432E
:10086000016370470B48436B012202FA01F11943FF
:10087000416370470748036C012202FA01F11943F2
:10088000016470470348436C012202FA01F11943E5
:10089000416470470038024010B44409064951F8D9
:1008A000243000F01F00012202FA00F0184341F842
:1008B00024005DF8044B704700E100E0034620B9D6
:1008C000A1F10D00C0B202280ED9012B08D010B43E
:1008D000012B18D04BB1022B23D05DF8044B70478D
:1008E000C81EC0B20128F2D87047154B1C684800DA
:1008F0000321814024EA010119601C6802FA00F119
:1009000021431960E9E70F4B1C684800032181402F
:1009100024EA010119601C6802FA00F12143196000
:10092000DBE7094B1868490003248C4020EA0400E7
:100930001860186802FA01F101431960CDE700BFA1
:10094000000002400004024000080240034620B9B3
:10095000A1F10D00C0B202282AD9012B06D02ABB72
:10096000012B11D03BB1022B17D07047C81EC0B26B
:100970000128F4D81CE01E484368012202FA01F164
:1009800023EA0101416070471A484368012202FAD4
:1009900001F123EA010141607047174843680122D1
:1009A00002FA01F123EA010141607047012A00D0F7
:1009B0007047012B0BD013B1022B10D070470C489D
:1009C0004368012202FA01F1194341607047094866
:1009D0004368012202FA01F1194341607047064859
:1009E0004368012202FA01F119434160E0E700BFC8
:1009F000000002400004024000080240034620B903
:100A0000A1F10D00C0B202280ED9012B08D010B4FC
:100A1000012B18D04BB1022B23D05DF8044B70474B
:100A2000C81EC0B20128F2D87047154B9C68480018
:100A30000321814024EA010199609C6802FA00F1D7
:100A400021439960E9E70F4B9C68480003218140EE
:100A500024EA010199609C6802FA00F1214399603F
:100A6000DBE7094B9868490003248C4020EA040026
:100A70009860986802FA01F101439960CDE700BFE0
:100A8000000002400004024000080240034620B972
:100A9000A1F10D00C0B202280ED9012B08D010B46C
:100AA000012B18D04BB1022B23D05DF8044B7047BB
:100AB000C81EC0B20128F2D87047154BDC68480048
:100AC0000321814024EA0101D960DC6802FA00F1C7
:100AD0002143D960E9E70F4BDC68480003218140DE
:100AE00024EA0101D960DC6802FA00F12143D960EF
:100AF000DBE7094BD868490003248C4020EA040056
:100B0000D860D86802FA01F10143D960CDE700BF8F
:100B100000000240000402400008024010B407290F
:100B200031D8012813D020B102281ED05DF8044B23
:100B30007047304B186A8C000F21A14020EA010158
:100B40001962186A02FA04F101431962EEE72A4BAE
:100B50001C6A88000F21814024EA010119621C6A85
:100B600002FA00F121431962E0E7244B186A890078
:100B70000F248C4020EA04001862186A02FA01F17E
:100B800001431962D2E7A1F10803DBB2072BCDD8EC
:100B9000012820D080B10228C8D1184B586A0839E2
:100BA00089000F248C4020EA04005862586A02FA37
:100BB00001F101435962B9E70E4B586A08398900BF
:100BC0000F248C4020EA04005862586A02FA01F1AE
:100BD00001435962AAE7084B586A083989000F2473
:100BE0008C4020EA04005862586A02FA01F101437D
:100BF00059629BE7000002400004024000080240E6
:100C0000034620B9A1F10D00C0B202280ED9012B74
:100C100008D0012A0BD04AB9012B27D0FBB1022BF7
:100C20002BD07047C81EC0B20128F2D87047012BE4
:100C300009D013B1022B0CD07047012303FA01F144
:100C4000114B99617047012303FA01F10F4B996130
:100C50007047012303FA01F10D4B99617047103180
:100C6000012303FA01F1084B996170471031012308
:100C700003FA01F1054B996170471031012303FA22
:100C800001F1034B9961D1E70000024000040240EA
:100C90000008024010B50446827841780078FFF7DA
:100CA0000DFEE27861782078FFF750FE22796178B6
:100CB0002078FFF7A3FE627961782078FFF7E6FEDF
:100CC000A27961782078FFF729FF10BD08B5054BA0
:100CD0001B6803B19847044A536943F00103536109
:100CE00008BD00BF3C010020003C014008B5054B99
:100CF0005B6803B19847044A536943F002035361A8
:100D000008BD00BF3C010020003C014008B5054B78
:100D10009B6803B19847044A536943F00403536145
:100D200008BD00BF3C010020003C014008B5054B58
:100D3000DB6803B19847044A536943F008035361E1
:100D400008BD00BF3C010020003C014008B5054B38
:100D50001B6903B19847044A536943F01003536178
:100D600008BD00BF3C010020003C014008B50E4B0F
:100D70005B6913F0200F08D00C4B5B6903B19847F7
:100D8000094A536943F020035361074B5B6913F031
:100D9000400F08D0054B9B6903B19847024A53693D
:100DA00043F04003536108BD003C01403C0100207A
:100DB00010B4114942001418E3000B441C6924F0DC
:100DC00001041C611C6924F040041C611C6944F08E
:100DD00080041C611C6944F400741C611C6944F4A7
:100DE00080641C611B6943F010031044C20011446D
:100DF0000B615DF8044B704700640240F0B4194C7D
:100E0000461C750005EB060C4FEACC07E1513D4648
:100E100025446A6041000D18EA002244156925F452
:100E2000C0551561156945EAC3231361136923F49D
:100E3000C043136113699DF8105043EA45331361B1
:100E4000BDF814305361536A23F003035362526AAE
:100E50009DF8183013430144CA0014446362F0BC87
:100E6000704700BF0064024010B4074A43001C18DA
:100E7000E1000C461144096941F00101224411616D
:100E80005DF8044B704700BF00640240014B43F81B
:100E9000201070477C01002008B5054B1B6803B18A
:100EA0009847044A936843F03D03936008BD00BF30
:100EB0007C0100200064024008B5012200210846A0
:100EC000FFF79EFE08BD000000B587B0FFF7A2FC4B
:100ED00000210846FFF7B8FC16210020FFF7B4FCFC
:100EE00000240494CDF8134001238DF8123004A897
:100EF000FFF7D0FE3820FFF7CFFC0B492046FFF765
:100F0000C5FF2046FFF754FF032302930A230193F2
:100F100002230093054A06492046FFF76FFF20464B
:100F2000FFF7A2FFFEE700BFB90E00089C010020FA
:100F300010000020014B1868704700BF38000020E7
:100F400030B5141E05469BB0184605DA8B232B607E
:100F50004FF0FF301BB030BD4FF40273ADF80C30D2
:100F600014BF04F1FF332346029305934FF6FF733A
:100F700000910491ADF80E3002461E9B694628464A
:100F800000F072F8431CBCBF8B232B60002CE1D017
:100F9000009B00221A70DDE707B5009313460A464E
:100FA000014603480068FFF7CBFF03B05DF804FB80
:100FB000380000202DE9F0478E689E4282460C469C
:100FC0009046994637D88A8912F4906F31D02568B7
:100FD00009696F1A6569022305EB450595FBF3F571
:100FE00009F101033B449D4238BF1D46530530D5EE
:100FF000294600F07FFB064650B90C23CAF80030A2
:10100000A38943F04003A3814FF0FF30BDE8F08790
:101010003A46216900F0FCFAA38923F4906343F077
:101020008003A381266165613E44ED1B2660A560B7
:101030004E464E4500D94E4632464146206800F0A5
:10104000F2FAA3689B1BA36023681E44266000205D
:10105000DCE72A4600F0A8FB06460028E2D1216919
:10106000504600F0F9FAC8E72DE9F04F9DB08046F0
:1010700003938B891D060C4616460FD50B696BB979
:10108000402100F037FB2060206128B90C23C8F80C
:1010900000304FF0FF30C7E0402363610023099325
:1010A00020238DF8293030238DF82A304FF0010BA2
:1010B00037463D4615F8013B0BB1252B3ED1B7EB2A
:1010C000060A0BD05346324621464046FFF772FFD0
:1010D000013000F0A480099B534409933B78002B16
:1010E00000F09D8000234FF0FF32CDE905230493EB
:1010F00007938DF853301A932F46052217F8011BDA
:101100004F4800F035FA049BD0B9D90644BF2022DD
:101110008DF853201A0744BF2B228DF853202A78CC
:101120002A2A15D0079A2F4600200A25394611F899
:10113000013B303B092B4DD9B8B10FE02F46B8E742
:101140003F4A801A0BFA00F0184304903D46D3E75B
:10115000039A111D12680391002A01DB079204E033
:10116000524243F00203079204933B782E2B0CD19A
:101170007B782A2B33D1039B1A1D1B680392002B0B
:10118000B8BF4FF0FF33023705932E4D3978032255
:10119000284600F0EDF938B14023401B03FA00F077
:1011A000049B034301370493397827488DF82810AE
:1011B00006227E1C00F0DCF9002838D0234B13BB3C
:1011C000039B073323F0070308330393099B4B4426
:1011D00009936DE705FB023201200F46A6E70023C5
:1011E0000137059319460A25384610F8012B303A85
:1011F000092A03D9002BC8D00591C6E705FB0121B8
:1012000001230746F0E703AB00932246104B04A9E5
:101210004046AFF30080B0F1FF3F8146D6D1A389AD
:101220005B063FF536AF09981DB0BDE8F08F03AB04
:1012300000932246064B04A9404600F081F8EAE7F5
:1012400080190008861900088A19000800000000AB
:10125000B50F00082DE9F04791461F468A680B69D3
:10126000DDF820809342B8BF1346C9F8003091F8EA
:10127000432006460C4612B10133C9F800302368FA
:10128000990642BFD9F800300233C9F8003025680A
:1012900015F0060507D104F1190AE368D9F8002012
:1012A0009B1AAB4228DC94F843302268003318BF05
:1012B000012392062DD404F1430239463046C0473B
:1012C000013020D02368E568D9F8002003F0060338
:1012D000042B08BFAD1AA36822690CBF25EAE57587
:1012E00000259342C4BF9B1AED184FF000091A3431
:1012F0004D451AD1002008E00123524639463046B8
:10130000C047013003D14FF0FF30BDE8F087013511
:10131000C3E7E1185A1C302081F84300224494F8B6
:10132000451082F843100233C5E7012322463946AF
:101330003046C0470130E6D009F10109D8E7000086
:101340002DE9F04301F1430C0C46097E85B06E296E
:101350001746064698460C9A00F0B38022D86329B7
:1013600036D00AD8002900F0B980582900F08380CF
:1013700004F1420584F8421032E0642901D0692961
:10138000F6D120681368050603F104012AD51B680D
:101390001160002B03DA2D225B4284F843206F4852
:1013A0000A2239E0732900F09D8008D86F2920D0E7
:1013B0007029DDD1236843F02003236003E0752901
:1013C00017D07829D4D1782384F84530644855E083
:1013D0001368191D1B68116004F1420584F842303E
:1013E00001238CE01B68116010F0400F18BF1BB286
:1013F000CFE713682568181D1060280601D51B6803
:1014000002E06806FBD51B8854486F2914BF0A22E6
:101410000822002184F843106568A560002DC0F201
:101420009580216821F004012160002B3DD1002D21
:1014300040F08E806546082A0BD12368DB0708D56B
:10144000236962689A42DEBF302305F8013C05F14A
:10145000FF35ACEB05032361CDF800803B4603AAC2
:1014600021463046FFF7F6FE01304DD14FF0FF30F8
:1014700005B0BDE8F083394884F845101368216849
:101480001D1D1B6815600A060BD5CA0744BF41F035
:10149000200121601BB9226822F020022260102264
:1014A000B7E74D0648BF9BB2EFE76546B3FBF2F1E5
:1014B00002FB1133C35C05F8013D0B460029F5D151
:1014C000B9E7136825686169181D106028061B6854
:1014D00001D5196002E06A06FBD51980002323615B
:1014E0006546B9E71368191D11601D68626800211F
:1014F000284600F03DF808B1401B60606368236136
:10150000002384F84330A7E723692A46394630464A
:10151000C0470130AAD023689B0713D4E068039B1F
:101520009842B8BF1846A3E701234A4639463046D9
:10153000C04701309AD00135E368039A9B1AAB4249
:10154000F2DCEBE7002504F11909F5E7002BACD13B
:10155000037884F8423004F142056CE791190008E1
:10156000A2190008000000000000000000000000B8
:1015700001F0FF01102A2BDB10F0070F08D010F844
:10158000013B013A8B422DD010F0070F42B3F6D148
:10159000F0B441EA012141EA014122F007047FF061
:1015A00000070023F0E80256083C85EA010586EAB8
:1015B000010685FA47F5A3FA87F586FA47F6A5FAF4
:1015C00087F68EB9EED1F0BC01F0FF0102F0070200
:1015D00032B110F8013B013A83EA010313B1F8D1AB
:1015E0000020704701387047002D06BF354603388C
:1015F000073815F0010F07D1013015F4807F02BFC5
:10160000013015F4C03F0130F0BC0138704700BF15
:1016100010B5431E0A44914200D110BD11F8014B90
:1016200003F8014FF7E7884210B501EB020307D832
:10163000421E99420AD011F8014B02F8014FF8E717
:101640008342F5D98118D21AD34200D110BD13F8C4
:10165000014D01F8014DF7E738B50546002945D0A1
:1016600051F8043C0C1F002BB8BFE41800F0D2F86E
:101670001F4A1368104633B9636014602846BDE8FA
:10168000384000F0C8B8A3420CD9216862189342D0
:1016900004BF1A685B68636004BF5218226004606C
:1016A000ECE713465A680AB1A242FAD919685818E9
:1016B000A0420BD120680144581882421960DDD144
:1016C000106852685A6001441960D7E702D90C23A8
:1016D0002B60D3E7206821188A4204BF1168526842
:1016E000626004BF091821605C60C7E738BD00BFB5
:1016F000C401002070B5CD1C25F0030508350C2D64
:1017000038BF0C25002D064601DBA94203D90C2366
:101710003360002070BD00F07DF8214A1468214636
:1017200091B9204C23681BB9304600F063F8206063
:101730002946304600F05EF8431C24D10C23336068
:10174000304600F068F8E4E70B685B1B18D40B2BFD
:101750000FD90B60CD50CC18304600F05CF804F186
:101760000B00231D20F00700C31AD3D05A42E250C9
:10177000D0E78C424B6816BF636013600C46EBE702
:101780000C464968CCE7C41C24F00304A04205D0F1
:10179000211A304600F02EF80130CFD02560DBE76B
:1017A000C4010020C8010020F8B5074614460E46C3
:1017B00021B91146BDE8F840FFF79CBF22B9FFF7F9
:1017C0004BFF25462846F8BD00F026F8A0420FD270
:1017D00021463846FFF78EFF05460028F2D03146F5
:1017E0002246FFF715FF31463846FFF735FFE9E798
:1017F0003546E7E738B5064C002305460846236022
:10180000FEF710FE431C02D1236803B12B6038BDE4
:10181000CC0100207047704751F8043C181F002B82
:10182000BCBF0B58C0187047537461636B2066725D
:10183000616D653A0A000000205230203D202025CD
:101840003038580A00000000205231203D20202569
:101850003038580A00000000205232203D20202558
:101860003038580A00000000205233203D20202547
:101870003038580A0000000020523132203D202527
:101880003038580A00000000204C52203D2020250E
:101890003038580A00000000205043203D20202509
:1018A0003038580A0000000020505352203D2025B7
:1018B0003038580A000000004653522F4641523A31
:1018C0000A0000002043465352203D202025303896
:1018D000580A00002048465352203D202025303829
:1018E000580A00002044465352203D20202530381D
:1018F000580A00002041465352203D202025303810
:10190000580A0000204D4D464152203D20253038D8
:10191000580A00002042464152203D202025303800
:10192000580A00004D6973630A000000204C522FD2
:101930004558435F52455455524E3D202530385846
:101940000A0000005B486172644661756C745D0A50
:10195000000000005B4275734661756C745D0A009F
:101960005B55736167654661756C745D0A000000C4
:10197000000000000000000001020304060708093F
:10198000232D302B2000686C4C0065666745464768
:1019900000303132333435363738394142434445EB
:1019A000460030313233343536373839616263645A
:0319B00065660069
:1019B40078563412A8000020000000000024F4002F
:1019C4000100000002000000030000000400000009
:1019D40005000000060000000700000008000000E9
:1019E400090000000A0000003C0000200000000084
:1019F40000000000000000000000000000000000E3
:101A040000000000000000000000000000000000D2
:101A140000000000000000000000000000000000C2
:101A240000000000000000000000000000000000B2
:101A340000000000000000000000000000000000A2
:101A440000000000000000000000000032547698FE
:040000050800019559
:00000001FF
